{
  "abi": [
    {
      "inputs": [
        {
          "internalType": "address",
          "name": "_logic",
          "type": "address"
        },
        {
          "internalType": "address",
          "name": "_admin",
          "type": "address"
        },
        {
          "internalType": "bytes",
          "name": "_data",
          "type": "bytes"
        }
      ],
      "stateMutability": "nonpayable",
      "type": "constructor"
    },
    {
      "anonymous": false,
      "inputs": [
        {
          "indexed": false,
          "internalType": "address",
          "name": "previousAdmin",
          "type": "address"
        },
        {
          "indexed": false,
          "internalType": "address",
          "name": "newAdmin",
          "type": "address"
        }
      ],
      "name": "AdminChanged",
      "type": "event"
    },
    {
      "anonymous": false,
      "inputs": [
        {
          "indexed": true,
          "internalType": "address",
          "name": "beacon",
          "type": "address"
        }
      ],
      "name": "BeaconUpgraded",
      "type": "event"
    },
    {
      "anonymous": false,
      "inputs": [
        {
          "indexed": true,
          "internalType": "address",
          "name": "implementation",
          "type": "address"
        }
      ],
      "name": "Upgraded",
      "type": "event"
    },
    {
      "stateMutability": "payable",
      "type": "fallback"
    },
    {
      "inputs": [],
      "name": "getAdmin",
      "outputs": [
        {
          "internalType": "address",
          "name": "",
          "type": "address"
        }
      ],
      "stateMutability": "view",
      "type": "function"
    },
    {
      "inputs": [],
      "name": "getImplementation",
      "outputs": [
        {
          "internalType": "address",
          "name": "",
          "type": "address"
        }
      ],
      "stateMutability": "view",
      "type": "function"
    },
    {
      "stateMutability": "payable",
      "type": "receive"
    }
  ],
  "bytecode": "608060405234801561001057600080fd5b506040516106ec3803806106ec83398101604081905261002f91610401565b828161003d82826000610051565b5061004990508261007d565b505050610526565b61005a836100eb565b6000825111806100675750805b1561007857610076838361012b565b505b505050565b7f7e644d79422f17c01e4894b5f4f588d331ebfa28653d42ae832dc59e38c9798f6100bd6000805160206106a5833981519152546001600160a01b031690565b604080516001600160a01b03928316815291841660208301520160405180910390a16100e881610157565b50565b6100f4816101f3565b6040516001600160a01b038216907fbc7cd75a20ee27fd9adebab32041f755214dbc6bffa90cc0225b39da2e5c2d3b90600090a250565b606061015083836040518060600160405280602781526020016106c560279139610287565b9392505050565b6001600160a01b0381166101c15760405162461bcd60e51b815260206004820152602660248201527f455243313936373a206e65772061646d696e20697320746865207a65726f206160448201526564647265737360d01b60648201526084015b60405180910390fd5b806000805160206106a58339815191525b80546001600160a01b0319166001600160a01b039290921691909117905550565b6001600160a01b0381163b6102605760405162461bcd60e51b815260206004820152602d60248201527f455243313936373a206e657720696d706c656d656e746174696f6e206973206e60448201526c1bdd08184818dbdb9d1c9858dd609a1b60648201526084016101b8565b807f360894a13ba1a3210667c828492db98dca3e2076cc3735a920a3ca505d382bbc6101d2565b6060600080856001600160a01b0316856040516102a491906104d7565b600060405180830381855af49150503d80600081146102df576040519150601f19603f3d011682016040523d82523d6000602084013e6102e4565b606091505b5090925090506102f686838387610300565b9695505050505050565b6060831561036f578251600003610368576001600160a01b0385163b6103685760405162461bcd60e51b815260206004820152601d60248201527f416464726573733a2063616c6c20746f206e6f6e2d636f6e747261637400000060448201526064016101b8565b5081610379565b6103798383610381565b949350505050565b8151156103915781518083602001fd5b8060405162461bcd60e51b81526004016101b891906104f3565b80516001600160a01b03811681146103c257600080fd5b919050565b634e487b7160e01b600052604160045260246000fd5b60005b838110156103f85781810151838201526020016103e0565b50506000910152565b60008060006060848603121561041657600080fd5b61041f846103ab565b925061042d602085016103ab565b60408501519092506001600160401b0381111561044957600080fd5b8401601f8101861361045a57600080fd5b80516001600160401b03811115610473576104736103c7565b604051601f8201601f19908116603f011681016001600160401b03811182821017156104a1576104a16103c7565b6040528181528282016020018810156104b957600080fd5b6104ca8260208301602086016103dd565b8093505050509250925092565b600082516104e98184602087016103dd565b9190910192915050565b60208152600082518060208401526105128160408501602087016103dd565b601f01601f19169190910160400192915050565b610170806105356000396000f3fe60806040526004361061002d5760003560e01c80636e9960c314610044578063aaf10f42146100755761003c565b3661003c5761003a61008a565b005b61003a61008a565b34801561005057600080fd5b5061005961009c565b6040516001600160a01b03909116815260200160405180910390f35b34801561008157600080fd5b506100596100ab565b61009a6100956100b1565b6100bb565b565b60006100a66100df565b905090565b60006100a65b60006100a6610112565b3660008037600080366000845af43d6000803e8080156100da573d6000f35b3d6000fd5b60007fb53127684a568b3173ae13b9f8a6016e243e63b6e8ee1178d6a717850b5d61035b546001600160a01b0316919050565b60007f360894a13ba1a3210667c828492db98dca3e2076cc3735a920a3ca505d382bbc61010356fea2646970667358221220f2a0c442d282ac3ec4bddef5057f12a8d76de0d76ec7dfdb0cdb2598bc238e1064736f6c634300081e0033b53127684a568b3173ae13b9f8a6016e243e63b6e8ee1178d6a717850b5d6103416464726573733a206c6f772d6c6576656c2064656c65676174652063616c6c206661696c6564",
  "bytecodeSha1": "da39a3ee5e6b4b0d3255bfef95601890afd80709",
  "compiler": {
    "evm_version": "istanbul",
    "optimizer": {
      "enabled": true,
      "runs": 200
    },
    "version": "0.8.30+commit.73712a01"
  },
  "contractName": "AegisProxy",
  "language": "Solidity",
  "natspec": {
    "details": "This contract implements a proxy that is upgradeable by an admin. This is the core of the Aegis Framework - enabling secure upgrades while maintaining state.",
    "kind": "dev",
    "methods": {
      "constructor": {
        "details": "Initializes an upgradeable proxy managed by `_admin`.",
        "params": {
          "_admin": "Address of the proxy admin.",
          "_data": "Data to send as msg.data to the implementation to initialize the proxied contract.",
          "_logic": "Address of the initial implementation."
        }
      },
      "getAdmin()": {
        "details": "Returns the current admin address."
      },
      "getImplementation()": {
        "details": "Returns the current implementation address."
      }
    },
    "title": "AegisProxy",
    "version": 1
  },
  "opcodes": "PUSH1 0x80 PUSH1 0x40 MSTORE PUSH1 0x4 CALLDATASIZE LT PUSH2 0x2D JUMPI PUSH1 0x0 CALLDATALOAD PUSH1 0xE0 SHR DUP1 PUSH4 0x6E9960C3 EQ PUSH2 0x44 JUMPI DUP1 PUSH4 0xAAF10F42 EQ PUSH2 0x75 JUMPI PUSH2 0x3C JUMP JUMPDEST CALLDATASIZE PUSH2 0x3C JUMPI PUSH2 0x3A PUSH2 0x8A JUMP JUMPDEST STOP JUMPDEST PUSH2 0x3A PUSH2 0x8A JUMP JUMPDEST CALLVALUE DUP1 ISZERO PUSH2 0x50 JUMPI PUSH1 0x0 DUP1 REVERT JUMPDEST POP PUSH2 0x59 PUSH2 0x9C JUMP JUMPDEST PUSH1 0x40 MLOAD PUSH1 0x1 PUSH1 0x1 PUSH1 0xA0 SHL SUB SWAP1 SWAP2 AND DUP2 MSTORE PUSH1 0x20 ADD PUSH1 0x40 MLOAD DUP1 SWAP2 SUB SWAP1 RETURN JUMPDEST CALLVALUE DUP1 ISZERO PUSH2 0x81 JUMPI PUSH1 0x0 DUP1 REVERT JUMPDEST POP PUSH2 0x59 PUSH2 0xAB JUMP JUMPDEST PUSH2 0x9A PUSH2 0x95 PUSH2 0xB1 JUMP JUMPDEST PUSH2 0xBB JUMP JUMPDEST JUMP JUMPDEST PUSH1 0x0 PUSH2 0xA6 PUSH2 0xDF JUMP JUMPDEST SWAP1 POP SWAP1 JUMP JUMPDEST PUSH1 0x0 PUSH2 0xA6 JUMPDEST PUSH1 0x0 PUSH2 0xA6 PUSH2 0x112 JUMP JUMPDEST CALLDATASIZE PUSH1 0x0 DUP1 CALLDATACOPY PUSH1 0x0 DUP1 CALLDATASIZE PUSH1 0x0 DUP5 GAS DELEGATECALL RETURNDATASIZE PUSH1 0x0 DUP1 RETURNDATACOPY DUP1 DUP1 ISZERO PUSH2 0xDA JUMPI RETURNDATASIZE PUSH1 0x0 RETURN JUMPDEST RETURNDATASIZE PUSH1 0x0 REVERT JUMPDEST PUSH1 0x0 PUSH32 0xB53127684A568B3173AE13B9F8A6016E243E63B6E8EE1178D6A717850B5D6103 JUMPDEST SLOAD PUSH1 0x1 PUSH1 0x1 PUSH1 0xA0 SHL SUB AND SWAP2 SWAP1 POP JUMP JUMPDEST PUSH1 0x0 PUSH32 0x360894A13BA1A3210667C828492DB98DCA3E2076CC3735A920A3CA505D382BBC PUSH2 0x103 JUMP INVALID LOG2 PUSH5 0x6970667358 0x22 SLT KECCAK256 CALLCODE LOG0 0xC4 TIMESTAMP 0xD2 DUP3 0xAC RETURNDATACOPY 0xC4 0xBD 0xDE CREATE2 SDIV PUSH32 0x12A8D76DE0D76EC7DFDB0CDB2598BC238E1064736F6C634300081E0033000000 ",
  "sha1": "19008936aa22e79528a203019f00c8ce12b692d6",
  "source": "// SPDX-License-Identifier: MIT\npragma solidity ^0.8.19;\n\nimport \"@openzeppelin/contracts/proxy/ERC1967/ERC1967Proxy.sol\";\n\n/**\n * @title AegisProxy\n * @dev This contract implements a proxy that is upgradeable by an admin.\n * This is the core of the Aegis Framework - enabling secure upgrades while maintaining state.\n */\ncontract AegisProxy is ERC1967Proxy {\n    /**\n     * @dev Initializes an upgradeable proxy managed by `_admin`.\n     * @param _logic Address of the initial implementation.\n     * @param _admin Address of the proxy admin.\n     * @param _data Data to send as msg.data to the implementation to initialize the proxied contract.\n     */\n    constructor(\n        address _logic,\n        address _admin, \n        bytes memory _data\n    ) ERC1967Proxy(_logic, _data) {\n        _changeAdmin(_admin);\n    }\n\n    /**\n     * @dev Returns the current implementation address.\n     */\n    function getImplementation() external view returns (address) {\n        return _implementation();\n    }\n\n    /**\n     * @dev Returns the current admin address.\n     */\n    function getAdmin() external view returns (address) {\n        return _getAdmin();\n    }\n}",
  "sourcePath": "contracts/AegisProxy.sol",
  "type": "contract"
}